{
  "_format": "hh-sol-artifact-1",
  "contractName": "ForensicEvidence",
  "sourceName": "contracts/ForensicEvidence.sol",
  "abi": [
    {
      "inputs": [],
      "stateMutability": "nonpayable",
      "type": "constructor"
    },
    {
      "inputs": [],
      "name": "AccessControlBadConfirmation",
      "type": "error"
    },
    {
      "inputs": [
        {
          "internalType": "address",
          "name": "account",
          "type": "address"
        },
        {
          "internalType": "bytes32",
          "name": "neededRole",
          "type": "bytes32"
        }
      ],
      "name": "AccessControlUnauthorizedAccount",
      "type": "error"
    },
    {
      "inputs": [
        {
          "internalType": "string",
          "name": "caseId",
          "type": "string"
        }
      ],
      "name": "CaseAlreadyExists",
      "type": "error"
    },
    {
      "inputs": [
        {
          "internalType": "string",
          "name": "caseId",
          "type": "string"
        }
      ],
      "name": "CaseAlreadySealed",
      "type": "error"
    },
    {
      "inputs": [
        {
          "internalType": "string",
          "name": "caseId",
          "type": "string"
        }
      ],
      "name": "CaseNotFound",
      "type": "error"
    },
    {
      "inputs": [],
      "name": "EmptyString",
      "type": "error"
    },
    {
      "inputs": [],
      "name": "ReentrancyGuardReentrantCall",
      "type": "error"
    },
    {
      "inputs": [],
      "name": "ZeroAddress",
      "type": "error"
    },
    {
      "anonymous": false,
      "inputs": [
        {
          "indexed": true,
          "internalType": "string",
          "name": "caseId",
          "type": "string"
        },
        {
          "indexed": false,
          "internalType": "bytes32",
          "name": "metadataHash",
          "type": "bytes32"
        },
        {
          "indexed": false,
          "internalType": "address",
          "name": "investigator",
          "type": "address"
        },
        {
          "indexed": false,
          "internalType": "uint256",
          "name": "timestamp",
          "type": "uint256"
        }
      ],
      "name": "CaseCreated",
      "type": "event"
    },
    {
      "anonymous": false,
      "inputs": [
        {
          "indexed": true,
          "internalType": "string",
          "name": "caseId",
          "type": "string"
        },
        {
          "indexed": false,
          "internalType": "uint256",
          "name": "timestamp",
          "type": "uint256"
        }
      ],
      "name": "CaseFinalized",
      "type": "event"
    },
    {
      "anonymous": false,
      "inputs": [
        {
          "indexed": true,
          "internalType": "address",
          "name": "investigator",
          "type": "address"
        },
        {
          "indexed": true,
          "internalType": "address",
          "name": "admin",
          "type": "address"
        }
      ],
      "name": "InvestigatorAuthorized",
      "type": "event"
    },
    {
      "anonymous": false,
      "inputs": [
        {
          "indexed": true,
          "internalType": "address",
          "name": "investigator",
          "type": "address"
        },
        {
          "indexed": true,
          "internalType": "address",
          "name": "admin",
          "type": "address"
        }
      ],
      "name": "InvestigatorRevoked",
      "type": "event"
    },
    {
      "anonymous": false,
      "inputs": [
        {
          "indexed": true,
          "internalType": "string",
          "name": "caseId",
          "type": "string"
        },
        {
          "indexed": false,
          "internalType": "bytes32",
          "name": "reportHash",
          "type": "bytes32"
        },
        {
          "indexed": false,
          "internalType": "string",
          "name": "threatLevel",
          "type": "string"
        },
        {
          "indexed": false,
          "internalType": "uint256",
          "name": "subjectCount",
          "type": "uint256"
        },
        {
          "indexed": false,
          "internalType": "uint256",
          "name": "timestamp",
          "type": "uint256"
        }
      ],
      "name": "ReportGenerated",
      "type": "event"
    },
    {
      "anonymous": false,
      "inputs": [
        {
          "indexed": true,
          "internalType": "bytes32",
          "name": "role",
          "type": "bytes32"
        },
        {
          "indexed": true,
          "internalType": "bytes32",
          "name": "previousAdminRole",
          "type": "bytes32"
        },
        {
          "indexed": true,
          "internalType": "bytes32",
          "name": "newAdminRole",
          "type": "bytes32"
        }
      ],
      "name": "RoleAdminChanged",
      "type": "event"
    },
    {
      "anonymous": false,
      "inputs": [
        {
          "indexed": true,
          "internalType": "bytes32",
          "name": "role",
          "type": "bytes32"
        },
        {
          "indexed": true,
          "internalType": "address",
          "name": "account",
          "type": "address"
        },
        {
          "indexed": true,
          "internalType": "address",
          "name": "sender",
          "type": "address"
        }
      ],
      "name": "RoleGranted",
      "type": "event"
    },
    {
      "anonymous": false,
      "inputs": [
        {
          "indexed": true,
          "internalType": "bytes32",
          "name": "role",
          "type": "bytes32"
        },
        {
          "indexed": true,
          "internalType": "address",
          "name": "account",
          "type": "address"
        },
        {
          "indexed": true,
          "internalType": "address",
          "name": "sender",
          "type": "address"
        }
      ],
      "name": "RoleRevoked",
      "type": "event"
    },
    {
      "anonymous": false,
      "inputs": [
        {
          "indexed": true,
          "internalType": "string",
          "name": "caseId",
          "type": "string"
        },
        {
          "indexed": false,
          "internalType": "bytes32",
          "name": "eventsHash",
          "type": "bytes32"
        },
        {
          "indexed": false,
          "internalType": "uint256",
          "name": "eventCount",
          "type": "uint256"
        },
        {
          "indexed": false,
          "internalType": "uint256",
          "name": "timestamp",
          "type": "uint256"
        }
      ],
      "name": "SceneCaptured",
      "type": "event"
    },
    {
      "inputs": [],
      "name": "DEFAULT_ADMIN_ROLE",
      "outputs": [
        {
          "internalType": "bytes32",
          "name": "",
          "type": "bytes32"
        }
      ],
      "stateMutability": "view",
      "type": "function"
    },
    {
      "inputs": [],
      "name": "INVESTIGATOR_ROLE",
      "outputs": [
        {
          "internalType": "bytes32",
          "name": "",
          "type": "bytes32"
        }
      ],
      "stateMutability": "view",
      "type": "function"
    },
    {
      "inputs": [
        {
          "internalType": "address",
          "name": "investigator",
          "type": "address"
        }
      ],
      "name": "authorizeInvestigator",
      "outputs": [],
      "stateMutability": "nonpayable",
      "type": "function"
    },
    {
      "inputs": [
        {
          "internalType": "string",
          "name": "",
          "type": "string"
        }
      ],
      "name": "cases",
      "outputs": [
        {
          "internalType": "bool",
          "name": "exists",
          "type": "bool"
        },
        {
          "internalType": "bool",
          "name": "isSealed",
          "type": "bool"
        },
        {
          "internalType": "uint256",
          "name": "createdAt",
          "type": "uint256"
        },
        {
          "internalType": "uint256",
          "name": "finalizedAt",
          "type": "uint256"
        },
        {
          "internalType": "address",
          "name": "investigator",
          "type": "address"
        }
      ],
      "stateMutability": "view",
      "type": "function"
    },
    {
      "inputs": [
        {
          "internalType": "string",
          "name": "caseId",
          "type": "string"
        },
        {
          "internalType": "bytes32",
          "name": "metadataHash",
          "type": "bytes32"
        }
      ],
      "name": "createCase",
      "outputs": [],
      "stateMutability": "nonpayable",
      "type": "function"
    },
    {
      "inputs": [
        {
          "internalType": "string",
          "name": "caseId",
          "type": "string"
        }
      ],
      "name": "finalizeCase",
      "outputs": [],
      "stateMutability": "nonpayable",
      "type": "function"
    },
    {
      "inputs": [
        {
          "internalType": "string",
          "name": "caseId",
          "type": "string"
        }
      ],
      "name": "getChainOfCustody",
      "outputs": [
        {
          "components": [
            {
              "internalType": "uint256",
              "name": "timestamp",
              "type": "uint256"
            },
            {
              "internalType": "string",
              "name": "eventType",
              "type": "string"
            },
            {
              "internalType": "bytes32",
              "name": "dataHash",
              "type": "bytes32"
            },
            {
              "internalType": "address",
              "name": "actor",
              "type": "address"
            }
          ],
          "internalType": "struct ForensicEvidence.CustodyEntry[]",
          "name": "",
          "type": "tuple[]"
        }
      ],
      "stateMutability": "view",
      "type": "function"
    },
    {
      "inputs": [
        {
          "internalType": "bytes32",
          "name": "role",
          "type": "bytes32"
        }
      ],
      "name": "getRoleAdmin",
      "outputs": [
        {
          "internalType": "bytes32",
          "name": "",
          "type": "bytes32"
        }
      ],
      "stateMutability": "view",
      "type": "function"
    },
    {
      "inputs": [
        {
          "internalType": "bytes32",
          "name": "role",
          "type": "bytes32"
        },
        {
          "internalType": "address",
          "name": "account",
          "type": "address"
        }
      ],
      "name": "grantRole",
      "outputs": [],
      "stateMutability": "nonpayable",
      "type": "function"
    },
    {
      "inputs": [
        {
          "internalType": "bytes32",
          "name": "role",
          "type": "bytes32"
        },
        {
          "internalType": "address",
          "name": "account",
          "type": "address"
        }
      ],
      "name": "hasRole",
      "outputs": [
        {
          "internalType": "bool",
          "name": "",
          "type": "bool"
        }
      ],
      "stateMutability": "view",
      "type": "function"
    },
    {
      "inputs": [
        {
          "internalType": "string",
          "name": "caseId",
          "type": "string"
        },
        {
          "internalType": "bytes32",
          "name": "reportHash",
          "type": "bytes32"
        },
        {
          "internalType": "string",
          "name": "threatLevel",
          "type": "string"
        },
        {
          "internalType": "uint256",
          "name": "subjectCount",
          "type": "uint256"
        }
      ],
      "name": "recordReportGeneration",
      "outputs": [],
      "stateMutability": "nonpayable",
      "type": "function"
    },
    {
      "inputs": [
        {
          "internalType": "string",
          "name": "caseId",
          "type": "string"
        },
        {
          "internalType": "bytes32",
          "name": "eventsHash",
          "type": "bytes32"
        },
        {
          "internalType": "uint256",
          "name": "eventCount",
          "type": "uint256"
        },
        {
          "internalType": "string[]",
          "name": "sensors",
          "type": "string[]"
        }
      ],
      "name": "recordSceneCapture",
      "outputs": [],
      "stateMutability": "nonpayable",
      "type": "function"
    },
    {
      "inputs": [
        {
          "internalType": "bytes32",
          "name": "role",
          "type": "bytes32"
        },
        {
          "internalType": "address",
          "name": "callerConfirmation",
          "type": "address"
        }
      ],
      "name": "renounceRole",
      "outputs": [],
      "stateMutability": "nonpayable",
      "type": "function"
    },
    {
      "inputs": [
        {
          "internalType": "address",
          "name": "investigator",
          "type": "address"
        }
      ],
      "name": "revokeInvestigator",
      "outputs": [],
      "stateMutability": "nonpayable",
      "type": "function"
    },
    {
      "inputs": [
        {
          "internalType": "bytes32",
          "name": "role",
          "type": "bytes32"
        },
        {
          "internalType": "address",
          "name": "account",
          "type": "address"
        }
      ],
      "name": "revokeRole",
      "outputs": [],
      "stateMutability": "nonpayable",
      "type": "function"
    },
    {
      "inputs": [
        {
          "internalType": "bytes4",
          "name": "interfaceId",
          "type": "bytes4"
        }
      ],
      "name": "supportsInterface",
      "outputs": [
        {
          "internalType": "bool",
          "name": "",
          "type": "bool"
        }
      ],
      "stateMutability": "view",
      "type": "function"
    },
    {
      "inputs": [
        {
          "internalType": "string",
          "name": "caseId",
          "type": "string"
        },
        {
          "internalType": "bytes32",
          "name": "hash",
          "type": "bytes32"
        }
      ],
      "name": "verifyHash",
      "outputs": [
        {
          "internalType": "bool",
          "name": "",
          "type": "bool"
        }
      ],
      "stateMutability": "view",
      "type": "function"
    }
  ],
  "bytecode": "0x6080604052346100505760017f9b779b17422d0df92223018b32b4d1fa46e071723d6817e2486d003becc55f005561003633610055565b50610040336100d3565b5060405161163590816101748239f35b600080fd5b6001600160a01b031660008181527fad3228b676f7d3cd4284a5443f17f1962b36e491b30a40b2405849e597ba5fb5602052604081205490919060ff166100cf57818052816020526040822081835260205260408220600160ff1982541617905533916000805160206117a98339815191528180a4600190565b5090565b6001600160a01b031660008181527ffc080454050a41d6c44df155e77f922150f610889a20d5c9fff7b94fcb919a2160205260408120549091907fc3ac62daf0e88d582bbd53046cc181f59cd6389ae21d9040d16b0315151856499060ff1661016e57808352826020526040832082845260205260408320600160ff198254161790556000805160206117a9833981519152339380a4600190565b50509056fe608080604052600436101561001357600080fd5b60003560e01c90816301ffc9a714610e2a57508063248a9ca314610dfb5780632f2ff15d14610dbc578063315e6dd114610d9357806334fac34114610d2e57806336568abe14610ce75780634c23de6914610b2c5780635e41eafd1461094b5780636b592450146106f95780637c76447a146104d657806391d1485414610489578063a217fddf1461046d578063aefeb68514610264578063b89207e014610241578063d547741f14610200578063df965829146101565763ef71a2f9146100da57600080fd5b34610151576020366003190112610151576100f3610e93565b6100fb610fc8565b6001600160a01b03811690811561013f57610115906111a9565b5033907f9c810137136aa39b28646b35920e31fddc0d222c8f53940f40480f5492ea3cca600080a3005b60405163d92e233d60e01b8152600490fd5b600080fd5b34610151576020366003190112610151576004356001600160401b0381116101515736602382011215610151576101b1602061019e60a0933690602481600401359101610f82565b8160405193828580945193849201610ed6565b810160018152030190208054906001810154906002810154906003600180871b03910154169160ff604051948181161515865260081c1615156020850152604084015260608301526080820152f35b346101515760403660031901126101515761023f60043561021f610e7d565b9080600052600060205261023a60016040600020015461106a565b611242565b005b3461015157602061025a61025436610ef9565b91611354565b6040519015158152f35b346101515761027236610ef9565b919061027c611324565b610284611020565b801561045b5760405191818184378183019360ff846001968781526020968791030190205416610431576102b98115156112d8565b6040519260a08401928484106001600160401b0385111761041b577f96518e0688b77cdfa68b474fce82e200ec802dbc52ca818fc15632cdf2e06d3e946060946040528781526003878201916000835260408101428152878201906000825260808301943386528c8c60405180928b8b83378b820190815203019020935115159060ff61ff0086549251151560081b1692169061ffff191617178355518b830155516002820155019060018060a01b039051166bffffffffffffffffffffffff60a01b8254161790556103bb83610391368585610f82565b6040519061039e82610f46565b600c82526b10d054d157d0d4915055115160a21b8a8301526113dd565b604051828282378681848101600381520301902083600052865260406000208760ff19825416179055816040519283928337810160008152039020936040519182523390820152426040820152a26000805160206115e083398151915255005b634e487b7160e01b600052604160045260246000fd5b5060405163101489f160e31b8152600481018490529182916104579160248401916112b7565b0390fd5b60405163ecd7b0d160e01b8152600490fd5b3461015157600036600319011261015157602060405160008152f35b34610151576040366003190112610151576104a2610e7d565b600435600052600060205260406000209060018060a01b0316600052602052602060ff604060002054166040519015158152f35b34610151576080366003190112610151576001600160401b0360043581811161015157610507903690600401610ea9565b60243591606435848111610151573660238201121561015157806004013594851161015157602436918660051b01011161015157610543611324565b61054b611020565b811561045b57604051938282863760ff85848101600181526020978891030190205416156106d35760ff60405184848237868186810160018152030190205460081c166106ad5761059d8415156112d8565b1561066857916060917fe107b5ddf521b80cf03876f0705e16bf16fbc5c1aa18cc4c5294547b23079b1993610603836105d7368585610f82565b604051906105e482610f46565b600e82526d14d0d1539157d0d054151554915160921b8a8301526113dd565b60405182828237868184810160038152030190208360005286526040600020600160ff198254161790558160405192839283378101600081520390209360405191825260443590820152426040820152a260016000805160206115e083398151915255005b60405162461bcd60e51b815260048101859052601c60248201527f466f72656e73696345766964656e63653a206e6f2073656e736f7273000000006044820152606490fd5b50604051635ea22f9760e11b8152600481018590529182916104579160248401916112b7565b50604051635ee1b31560e11b8152600481018590529182916104579160248401916112b7565b34610151576020366003190112610151576001600160401b036004358181116101515761072a903690600401610ea9565b9060ff6040518383823760208185810160018152030190205416156109265760209082604051938492833781016002815203019020805491821161041b576040519161077c60208260051b0184610f61565b8083526020830190819260005260206000206000925b82841061084857848660405191829160208301906020845251809152604083019060408160051b85010192916000905b8282106107d157505050500390f35b919360019193955060208091603f198982030185528751908151815282820151916080908185840152835180928401526108138260a095878787019101610ed6565b6040810151604084015260609081888060a01b039101511690830152601f8019910116010196019201920185949391926107c2565b60405161085481610f2b565b8254815260405160018401805460009161086d826113a3565b808552916001811690811561090157506001146108c9575b5050926004928261089c6020946001970382610f61565b8382015260028601546040820152848060a01b036003870154166060820152815201920193019290610792565b6000908152602081209092505b8183106108eb57505081016020018282610885565b60018160209254838688010152019201916108d6565b60ff191660208087019190915292151560051b85019092019250849150839050610885565b604051635ee1b31560e11b8152602060048201529182916104579160248401916112b7565b34610151576080366003190112610151576001600160401b036004358181116101515761097c903690600401610ea9565b9190602435916044359081116101515761099a903690600401610ea9565b92906109a4611324565b6109ac611020565b841561045b57831561045b57604051928581853760ff8487810160018152602096879103019020541615610b075760ff60405187838237858189810160018152030190205460081c16610ae257907fc479210eded9547c7f2ebead0aaacc8ca1afb57aee351fe12296e51b3b8650ae9495610abd92610a2c8515156112d8565b610a6985610a3b368585610f82565b60405190610a4882610f46565b601082526f14915413d49517d1d15391549055115160821b8a8301526113dd565b60405182828237868184810160038152030190208560005286526040600020600160ff19825416179055816040519283928337810160008152039020956080604051958695865285015260808401916112b7565b60643560408301524260608301520390a260016000805160206115e083398151915255005b836104578792604051938493635ea22f9760e11b8552600485015260248401916112b7565b836104578792604051938493635ee1b31560e11b8552600485015260248401916112b7565b3461015157602080600319360112610151576004356001600160401b03811161015157610b5d903690600401610ea9565b9190610b67611324565b610b6f611020565b821561045b5760ff6040518483823783818681016001815203019020541615610cc45760ff60405184838237838186810160018152030190205460081c16610ca157827fb8af40eeb18a5573ae6ed3622d26313eb7bd548bc5fd1254af77764c32e9b68791604051828282378481848101600181520301902061010061ff0019825416179055604051828282376002838201916001835286814294030190200155610c736040518581019084848337610c39604082878101428b8201520389810184520182610f61565b519020610c47368585610f82565b60405190610c5482610f46565b600e82526d10d054d157d1925390531256915160921b888301526113dd565b81604051928392833781016000815203902091604051428152a260016000805160206115e083398151915255005b61045790604051938493635ea22f9760e11b8552600485015260248401916112b7565b61045790604051938493635ee1b31560e11b8552600485015260248401916112b7565b3461015157604036600319011261015157610d00610e7d565b336001600160a01b03821603610d1c5761023f90600435611242565b60405163334bd91960e11b8152600490fd5b3461015157602036600319011261015157610d47610e93565b610d4f610fc8565b6001600160a01b03811690811561013f57610d6990611090565b5033907f7fb5ce06042887637ad94464733c1adfe6a96de5cb63c0e9ea5c5aaac91631dd600080a3005b346101515760003660031901126101515760206040516000805160206115c08339815191528152f35b346101515760403660031901126101515761023f600435610ddb610e7d565b90806000526000602052610df660016040600020015461106a565b611130565b346101515760203660031901126101515760043560005260006020526020600160406000200154604051908152f35b34610151576020366003190112610151576004359063ffffffff60e01b821680920361015157602091637965db0b60e01b8114908115610e6c575b5015158152f35b6301ffc9a760e01b14905083610e65565b602435906001600160a01b038216820361015157565b600435906001600160a01b038216820361015157565b9181601f84011215610151578235916001600160401b038311610151576020838186019501011161015157565b60005b838110610ee95750506000910152565b8181015183820152602001610ed9565b604060031982011261015157600435906001600160401b03821161015157610f2391600401610ea9565b909160243590565b608081019081106001600160401b0382111761041b57604052565b604081019081106001600160401b0382111761041b57604052565b90601f801991011681019081106001600160401b0382111761041b57604052565b9291926001600160401b03821161041b5760405191610fab601f8201601f191660200184610f61565b829481845281830111610151578281602093846000960137010152565b3360009081527fad3228b676f7d3cd4284a5443f17f1962b36e491b30a40b2405849e597ba5fb5602052604081205460ff16156110025750565b6044906040519063e2517d3f60e01b82523360048301526024820152fd5b3360009081527ffc080454050a41d6c44df155e77f922150f610889a20d5c9fff7b94fcb919a2160205260409020546000805160206115c08339815191529060ff16156110025750565b80600052600060205260406000203360005260205260ff60406000205416156110025750565b6001600160a01b031660008181527ffc080454050a41d6c44df155e77f922150f610889a20d5c9fff7b94fcb919a2160205260408120549091906000805160206115c08339815191529060ff1661112b57808352826020526040832082845260205260408320600160ff198254161790557f2f8788117e7eff1d82e926ec794901d17c78024a50270940304540a733656f0d339380a4600190565b505090565b9060009180835282602052604083209160018060a01b03169182845260205260ff6040842054161560001461112b57808352826020526040832082845260205260408320600160ff198254161790557f2f8788117e7eff1d82e926ec794901d17c78024a50270940304540a733656f0d339380a4600190565b6001600160a01b031660008181527ffc080454050a41d6c44df155e77f922150f610889a20d5c9fff7b94fcb919a2160205260408120549091906000805160206115c08339815191529060ff161561112b5780835282602052604083208284526020526040832060ff1981541690557ff6391f5c32d9c69d2a47ea670b442974b53935d1edc7fd64eb21e047a839171b339380a4600190565b9060009180835282602052604083209160018060a01b03169182845260205260ff60408420541660001461112b5780835282602052604083208284526020526040832060ff1981541690557ff6391f5c32d9c69d2a47ea670b442974b53935d1edc7fd64eb21e047a839171b339380a4600190565b908060209392818452848401376000828201840152601f01601f1916010190565b156112df57565b60405162461bcd60e51b815260206004820152601b60248201527f466f72656e73696345766964656e63653a207a65726f206861736800000000006044820152606490fd5b6000805160206115e083398151915260028154146113425760029055565b604051633ee5aeb560e01b8152600490fd5b60ff60405183838237602081858101600181520301902054161561139b57602090826040519384928337810160038152030190209060005260205260ff6040600020541690565b505050600090565b90600182811c921680156113d3575b60208310146113bd57565b634e487b7160e01b600052602260045260246000fd5b91607f16916113b2565b92919060405184818096516113f8816020998a809601610ed6565b81016002815203019020916040519161141083610f2b565b4283528583019081526040830191825260608301933385528054966801000000000000000088101561041b576001978881018084558110156115a95760009283528183209060021b019451855587850192518051926001600160401b0384116115955761147d85546113a3565b601f811161154f575b5082601f85116001146114ea575098839283926003999a9b946114df575b50501b9160001990871b1c19161790555b516002820155019060018060a01b039051166bffffffffffffffffffffffff60a01b825416179055565b0151925038806114a4565b9993929091601f1984169a86845280842093905b8c8210611538575050836003999a9b10611520575b505050811b0190556114b5565b015160001983891b60f8161c19169055388080611513565b8087859682949686015181550195019301906114fe565b858252838220601f860160051c81019185871061158b575b601f0160051c01908b905b828110611580575050611486565b838155018b90611572565b9091508190611567565b634e487b7160e01b81526041600452602490fd5b634e487b7160e01b600052603260045260246000fdfec3ac62daf0e88d582bbd53046cc181f59cd6389ae21d9040d16b0315151856499b779b17422d0df92223018b32b4d1fa46e071723d6817e2486d003becc55f00a26469706673582212200ad0f0afd2ab58cbf10fb143f57dfa52879927552c042409d0df4e5f8c7aceee64736f6c634300081400332f8788117e7eff1d82e926ec794901d17c78024a50270940304540a733656f0d",
  "linkReferences": {},
  "deployedLinkReferences": {}
}